{
  "_format": "hh-sol-artifact-1",
  "contractName": "Lock",
  "sourceName": "contracts/Lock.sol",
  "abi": [
    {
      "inputs": [
        {
          "internalType": "address",
          "name": "_owner",
          "type": "address"
        },
        {
          "internalType": "uint256",
          "name": "_unlockTime",
          "type": "uint256"
        }
      ],
      "stateMutability": "payable",
      "type": "constructor"
    },
    {
      "anonymous": false,
      "inputs": [
        {
          "indexed": false,
          "internalType": "address",
          "name": "sender",
          "type": "address"
        },
        {
          "indexed": false,
          "internalType": "uint256",
          "name": "amount",
          "type": "uint256"
        }
      ],
      "name": "Received",
      "type": "event"
    },
    {
      "anonymous": false,
      "inputs": [
        {
          "indexed": false,
          "internalType": "uint256",
          "name": "amount",
          "type": "uint256"
        },
        {
          "indexed": false,
          "internalType": "uint256",
          "name": "when",
          "type": "uint256"
        }
      ],
      "name": "Withdrawal",
      "type": "event"
    },
    {
      "inputs": [],
      "name": "owner",
      "outputs": [
        {
          "internalType": "address payable",
          "name": "",
          "type": "address"
        }
      ],
      "stateMutability": "view",
      "type": "function"
    },
    {
      "inputs": [
        {
          "internalType": "address",
          "name": "_owner",
          "type": "address"
        }
      ],
      "name": "setOwner",
      "outputs": [],
      "stateMutability": "nonpayable",
      "type": "function"
    },
    {
      "inputs": [
        {
          "internalType": "uint256",
          "name": "_unlockTime",
          "type": "uint256"
        }
      ],
      "name": "setUnlockTime",
      "outputs": [],
      "stateMutability": "nonpayable",
      "type": "function"
    },
    {
      "inputs": [],
      "name": "unlockTime",
      "outputs": [
        {
          "internalType": "uint256",
          "name": "",
          "type": "uint256"
        }
      ],
      "stateMutability": "view",
      "type": "function"
    },
    {
      "inputs": [],
      "name": "withdraw",
      "outputs": [],
      "stateMutability": "nonpayable",
      "type": "function"
    },
    {
      "stateMutability": "payable",
      "type": "receive"
    }
  ],
  "bytecode": "0x608060405260405161055d38038061055d83398101604081905261002291610103565b6001600160a01b0382166000036100805760405162461bcd60e51b815260206004820152601660248201527f4f776e6572206d757374206e6f74206265207a65726f0000000000000000000060448201526064015b60405180910390fd5b8042106100db5760405162461bcd60e51b815260206004820152602360248201527f556e6c6f636b2074696d652073686f756c6420626520696e207468652066757460448201526275726560e81b6064820152608401610077565b600055600180546001600160a01b0319166001600160a01b039290921691909117905561013d565b6000806040838503121561011657600080fd5b82516001600160a01b038116811461012d57600080fd5b6020939093015192949293505050565b6104118061014c6000396000f3fe60806040526004361061004e5760003560e01c806313af403514610092578063251c1aa3146100b45780633ccfd60b146100dd5780638da5cb5b146100f2578063dace45571461012a57600080fd5b3661008d57604080513381523460208201527f88a5966d370b9919b20f3e2c13ff65706f196a4e32cc2c12bf57088f88525874910160405180910390a1005b600080fd5b34801561009e57600080fd5b506100b26100ad366004610364565b61014a565b005b3480156100c057600080fd5b506100ca60005481565b6040519081526020015b60405180910390f35b3480156100e957600080fd5b506100b261019f565b3480156100fe57600080fd5b50600154610112906001600160a01b031681565b6040516001600160a01b0390911681526020016100d4565b34801561013657600080fd5b506100b2610145366004610394565b610288565b6001546001600160a01b0316331461017d5760405162461bcd60e51b8152600401610174906103ad565b60405180910390fd5b600180546001600160a01b0319166001600160a01b0392909216919091179055565b6000544210156101ea5760405162461bcd60e51b8152602060048201526016602482015275165bdd4818d85b89dd081dda5d1a191c985dc81e595d60521b6044820152606401610174565b6001546001600160a01b031633146102145760405162461bcd60e51b8152600401610174906103ad565b604080514781524260208201527fbf2ed60bd5b5965d685680c01195c9514e4382e28e3a5a2d2d5244bf59411b93910160405180910390a16001546040516001600160a01b03909116904780156108fc02916000818181858888f19350505050158015610285573d6000803e3d6000fd5b50565b6000544210156102da5760405162461bcd60e51b815260206004820152601960248201527f596f752063616e2774206368616e67652074696d6520796574000000000000006044820152606401610174565b6001546001600160a01b031633146103045760405162461bcd60e51b8152600401610174906103ad565b80421061035f5760405162461bcd60e51b815260206004820152602360248201527f556e6c6f636b2074696d652073686f756c6420626520696e207468652066757460448201526275726560e81b6064820152608401610174565b600055565b60006020828403121561037657600080fd5b81356001600160a01b038116811461038d57600080fd5b9392505050565b6000602082840312156103a657600080fd5b5035919050565b6020808252601490820152732cb7ba9030b932b713ba103a34329037bbb732b960611b60408201526060019056fea2646970667358221220f4a24e292665529b5d762310bda3cbaed6bca81032a128179398a4ae517bdb6064736f6c634300081c0033",
  "linkReferences": {},
  "deployedLinkReferences": {}
}