{
  "contracts/Lock.sol": {
    "Lock": {
      "abi": [
        {
          "inputs": [
            {
              "internalType": "address",
              "name": "_owner",
              "type": "address"
            },
            {
              "internalType": "uint256",
              "name": "_unlockTime",
              "type": "uint256"
            },
            {
              "internalType": "uint256",
              "name": "_depositDeadline",
              "type": "uint256"
            }
          ],
          "stateMutability": "payable",
          "type": "constructor"
        },
        {
          "anonymous": false,
          "inputs": [
            {
              "indexed": false,
              "internalType": "address",
              "name": "sender",
              "type": "address"
            },
            {
              "indexed": false,
              "internalType": "uint256",
              "name": "amount",
              "type": "uint256"
            }
          ],
          "name": "Received",
          "type": "event"
        },
        {
          "anonymous": false,
          "inputs": [
            {
              "indexed": false,
              "internalType": "uint256",
              "name": "amount",
              "type": "uint256"
            },
            {
              "indexed": false,
              "internalType": "uint256",
              "name": "when",
              "type": "uint256"
            }
          ],
          "name": "Withdrawal",
          "type": "event"
        },
        {
          "inputs": [],
          "name": "depositDeadline",
          "outputs": [
            {
              "internalType": "uint256",
              "name": "",
              "type": "uint256"
            }
          ],
          "stateMutability": "view",
          "type": "function"
        },
        {
          "inputs": [],
          "name": "owner",
          "outputs": [
            {
              "internalType": "address payable",
              "name": "",
              "type": "address"
            }
          ],
          "stateMutability": "view",
          "type": "function"
        },
        {
          "inputs": [
            {
              "internalType": "uint256",
              "name": "_depositDeadline",
              "type": "uint256"
            }
          ],
          "name": "setDepositDeadline",
          "outputs": [],
          "stateMutability": "nonpayable",
          "type": "function"
        },
        {
          "inputs": [
            {
              "internalType": "address",
              "name": "_owner",
              "type": "address"
            }
          ],
          "name": "setOwner",
          "outputs": [],
          "stateMutability": "nonpayable",
          "type": "function"
        },
        {
          "inputs": [
            {
              "internalType": "uint256",
              "name": "_unlockTime",
              "type": "uint256"
            }
          ],
          "name": "setUnlockTime",
          "outputs": [],
          "stateMutability": "nonpayable",
          "type": "function"
        },
        {
          "inputs": [],
          "name": "unlockTime",
          "outputs": [
            {
              "internalType": "uint256",
              "name": "",
              "type": "uint256"
            }
          ],
          "stateMutability": "view",
          "type": "function"
        },
        {
          "inputs": [],
          "name": "withdraw",
          "outputs": [],
          "stateMutability": "nonpayable",
          "type": "function"
        },
        {
          "stateMutability": "payable",
          "type": "receive"
        }
      ],
      "evm": {
        "bytecode": {
          "linkReferences": {},
          "object": "60806040526040516109813803806109818339810160408190526100229161023e565b6001600160a01b0383166000036100805760405162461bcd60e51b815260206004820152601660248201527f4f776e6572206d757374206e6f74206265207a65726f0000000000000000000060448201526064015b60405180910390fd5b8142106100db5760405162461bcd60e51b815260206004820152602360248201527f556e6c6f636b2074696d652073686f756c6420626520696e207468652066757460448201526275726560e81b6064820152608401610077565b6368635d40821061013a5760405162461bcd60e51b815260206004820152602360248201527f556e6c6f636b2074696d65206d757374206265206265666f7265204a756c79206044820152620c5cdd60ea1b6064820152608401610077565b80421061019a5760405162461bcd60e51b815260206004820152602860248201527f4465706f73697420646561646c696e652073686f756c6420626520696e207468604482015267652066757475726560c01b6064820152608401610077565b818111156102105760405162461bcd60e51b815260206004820152603760248201527f4465706f73697420646561646c696e65206d757374206265206265666f72652060448201527f6f7220657175616c20746f20756e6c6f636b2074696d650000000000000000006064820152608401610077565b600091909155600155600280546001600160a01b0319166001600160a01b0392909216919091179055610281565b60008060006060848603121561025357600080fd5b83516001600160a01b038116811461026a57600080fd5b602085015160409095015190969495509392505050565b6106f1806102906000396000f3fe6080604052600436106100745760003560e01c806361603d891161004e57806361603d89146101ee5780638da5cb5b14610204578063d8a860811461023c578063dace45571461025c57600080fd5b806313af40351461018e578063251c1aa3146101b05780633ccfd60b146101d957600080fd5b366101895760015442106100cf5760405162461bcd60e51b815260206004820152601e60248201527f4465706f7369747320617265206e6f206c6f6e67657220616c6c6f776564000060448201526064015b60405180910390fd5b46612105141580156100e457504662014a3414155b1561014f5733321461014f5760405162461bcd60e51b815260206004820152602e60248201527f436f6e7472616374732063616e6e6f742073656e6420455448206f6e206e6f6e60448201526d2d42617365206e6574776f726b7360901b60648201526084016100c6565b604080513381523460208201527f88a5966d370b9919b20f3e2c13ff65706f196a4e32cc2c12bf57088f88525874910160405180910390a1005b600080fd5b34801561019a57600080fd5b506101ae6101a9366004610644565b61027c565b005b3480156101bc57600080fd5b506101c660005481565b6040519081526020015b60405180910390f35b3480156101e557600080fd5b506101ae61031a565b3480156101fa57600080fd5b506101c660015481565b34801561021057600080fd5b50600254610224906001600160a01b031681565b6040516001600160a01b0390911681526020016101d0565b34801561024857600080fd5b506101ae610257366004610674565b610403565b34801561026857600080fd5b506101ae610277366004610674565b61050a565b6002546001600160a01b031633146102a65760405162461bcd60e51b81526004016100c69061068d565b6001600160a01b0381166000036102f85760405162461bcd60e51b81526020600482015260166024820152754f776e6572206d757374206e6f74206265207a65726f60501b60448201526064016100c6565b600280546001600160a01b0319166001600160a01b0392909216919091179055565b6000544210156103655760405162461bcd60e51b8152602060048201526016602482015275165bdd4818d85b89dd081dda5d1a191c985dc81e595d60521b60448201526064016100c6565b6002546001600160a01b0316331461038f5760405162461bcd60e51b81526004016100c69061068d565b604080514781524260208201527fbf2ed60bd5b5965d685680c01195c9514e4382e28e3a5a2d2d5244bf59411b93910160405180910390a16002546040516001600160a01b03909116904780156108fc02916000818181858888f19350505050158015610400573d6000803e3d6000fd5b50565b6002546001600160a01b0316331461042d5760405162461bcd60e51b81526004016100c69061068d565b6000548111156104a55760405162461bcd60e51b815260206004820152603760248201527f4465706f73697420646561646c696e65206d757374206265206265666f72652060448201527f6f7220657175616c20746f20756e6c6f636b2074696d6500000000000000000060648201526084016100c6565b8042106105055760405162461bcd60e51b815260206004820152602860248201527f4465706f73697420646561646c696e652073686f756c6420626520696e207468604482015267652066757475726560c01b60648201526084016100c6565b600155565b6002546001600160a01b031633146105345760405162461bcd60e51b81526004016100c69061068d565b80600054106105855760405162461bcd60e51b815260206004820152601960248201527f43616e6e6f74206465637265617365206c6f636b2074696d650000000000000060448201526064016100c6565b8042106105e05760405162461bcd60e51b815260206004820152602360248201527f556e6c6f636b2074696d652073686f756c6420626520696e207468652066757460448201526275726560e81b60648201526084016100c6565b6368635d40811061063f5760405162461bcd60e51b815260206004820152602360248201527f556e6c6f636b2074696d65206d757374206265206265666f7265204a756c79206044820152620c5cdd60ea1b60648201526084016100c6565b600055565b60006020828403121561065657600080fd5b81356001600160a01b038116811461066d57600080fd5b9392505050565b60006020828403121561068657600080fd5b5035919050565b6020808252601490820152732cb7ba9030b932b713ba103a34329037bbb732b960611b60408201526060019056fea26469706673582212203725a4bfe3553b11a795eb7d112115d7f64c504e420c4f7de9998ff91466538664736f6c634300081c0033",
          "opcodes": "PUSH1 0x80 PUSH1 0x40 MSTORE PUSH1 0x40 MLOAD PUSH2 0x981 CODESIZE SUB DUP1 PUSH2 0x981 DUP4 CODECOPY DUP2 ADD PUSH1 0x40 DUP2 SWAP1 MSTORE PUSH2 0x22 SWAP2 PUSH2 0x23E JUMP JUMPDEST PUSH1 0x1 PUSH1 0x1 PUSH1 0xA0 SHL SUB DUP4 AND PUSH1 0x0 SUB PUSH2 0x80 JUMPI PUSH1 0x40 MLOAD PUSH3 0x461BCD PUSH1 0xE5 SHL DUP2 MSTORE PUSH1 0x20 PUSH1 0x4 DUP3 ADD MSTORE PUSH1 0x16 PUSH1 0x24 DUP3 ADD MSTORE PUSH32 0x4F776E6572206D757374206E6F74206265207A65726F00000000000000000000 PUSH1 0x44 DUP3 ADD MSTORE PUSH1 0x64 ADD JUMPDEST PUSH1 0x40 MLOAD DUP1 SWAP2 SUB SWAP1 REVERT JUMPDEST DUP2 TIMESTAMP LT PUSH2 0xDB JUMPI PUSH1 0x40 MLOAD PUSH3 0x461BCD PUSH1 0xE5 SHL DUP2 MSTORE PUSH1 0x20 PUSH1 0x4 DUP3 ADD MSTORE PUSH1 0x23 PUSH1 0x24 DUP3 ADD MSTORE PUSH32 0x556E6C6F636B2074696D652073686F756C6420626520696E2074686520667574 PUSH1 0x44 DUP3 ADD MSTORE PUSH3 0x757265 PUSH1 0xE8 SHL PUSH1 0x64 DUP3 ADD MSTORE PUSH1 0x84 ADD PUSH2 0x77 JUMP JUMPDEST PUSH4 0x68635D40 DUP3 LT PUSH2 0x13A JUMPI PUSH1 0x40 MLOAD PUSH3 0x461BCD PUSH1 0xE5 SHL DUP2 MSTORE PUSH1 0x20 PUSH1 0x4 DUP3 ADD MSTORE PUSH1 0x23 PUSH1 0x24 DUP3 ADD MSTORE PUSH32 0x556E6C6F636B2074696D65206D757374206265206265666F7265204A756C7920 PUSH1 0x44 DUP3 ADD MSTORE PUSH3 0xC5CDD PUSH1 0xEA SHL PUSH1 0x64 DUP3 ADD MSTORE PUSH1 0x84 ADD PUSH2 0x77 JUMP JUMPDEST DUP1 TIMESTAMP LT PUSH2 0x19A JUMPI PUSH1 0x40 MLOAD PUSH3 0x461BCD PUSH1 0xE5 SHL DUP2 MSTORE PUSH1 0x20 PUSH1 0x4 DUP3 ADD MSTORE PUSH1 0x28 PUSH1 0x24 DUP3 ADD MSTORE PUSH32 0x4465706F73697420646561646C696E652073686F756C6420626520696E207468 PUSH1 0x44 DUP3 ADD MSTORE PUSH8 0x6520667574757265 PUSH1 0xC0 SHL PUSH1 0x64 DUP3 ADD MSTORE PUSH1 0x84 ADD PUSH2 0x77 JUMP JUMPDEST DUP2 DUP2 GT ISZERO PUSH2 0x210 JUMPI PUSH1 0x40 MLOAD PUSH3 0x461BCD PUSH1 0xE5 SHL DUP2 MSTORE PUSH1 0x20 PUSH1 0x4 DUP3 ADD MSTORE PUSH1 0x37 PUSH1 0x24 DUP3 ADD MSTORE PUSH32 0x4465706F73697420646561646C696E65206D757374206265206265666F726520 PUSH1 0x44 DUP3 ADD MSTORE PUSH32 0x6F7220657175616C20746F20756E6C6F636B2074696D65000000000000000000 PUSH1 0x64 DUP3 ADD MSTORE PUSH1 0x84 ADD PUSH2 0x77 JUMP JUMPDEST PUSH1 0x0 SWAP2 SWAP1 SWAP2 SSTORE PUSH1 0x1 SSTORE PUSH1 0x2 DUP1 SLOAD PUSH1 0x1 PUSH1 0x1 PUSH1 0xA0 SHL SUB NOT AND PUSH1 0x1 PUSH1 0x1 PUSH1 0xA0 SHL SUB SWAP3 SWAP1 SWAP3 AND SWAP2 SWAP1 SWAP2 OR SWAP1 SSTORE PUSH2 0x281 JUMP JUMPDEST PUSH1 0x0 DUP1 PUSH1 0x0 PUSH1 0x60 DUP5 DUP7 SUB SLT ISZERO PUSH2 0x253 JUMPI PUSH1 0x0 DUP1 REVERT JUMPDEST DUP4 MLOAD PUSH1 0x1 PUSH1 0x1 PUSH1 0xA0 SHL SUB DUP2 AND DUP2 EQ PUSH2 0x26A JUMPI PUSH1 0x0 DUP1 REVERT JUMPDEST PUSH1 0x20 DUP6 ADD MLOAD PUSH1 0x40 SWAP1 SWAP6 ADD MLOAD SWAP1 SWAP7 SWAP5 SWAP6 POP SWAP4 SWAP3 POP POP POP JUMP JUMPDEST PUSH2 0x6F1 DUP1 PUSH2 0x290 PUSH1 0x0 CODECOPY PUSH1 0x0 RETURN INVALID PUSH1 0x80 PUSH1 0x40 MSTORE PUSH1 0x4 CALLDATASIZE LT PUSH2 0x74 JUMPI PUSH1 0x0 CALLDATALOAD PUSH1 0xE0 SHR DUP1 PUSH4 0x61603D89 GT PUSH2 0x4E JUMPI DUP1 PUSH4 0x61603D89 EQ PUSH2 0x1EE JUMPI DUP1 PUSH4 0x8DA5CB5B EQ PUSH2 0x204 JUMPI DUP1 PUSH4 0xD8A86081 EQ PUSH2 0x23C JUMPI DUP1 PUSH4 0xDACE4557 EQ PUSH2 0x25C JUMPI PUSH1 0x0 DUP1 REVERT JUMPDEST DUP1 PUSH4 0x13AF4035 EQ PUSH2 0x18E JUMPI DUP1 PUSH4 0x251C1AA3 EQ PUSH2 0x1B0 JUMPI DUP1 PUSH4 0x3CCFD60B EQ PUSH2 0x1D9 JUMPI PUSH1 0x0 DUP1 REVERT JUMPDEST CALLDATASIZE PUSH2 0x189 JUMPI PUSH1 0x1 SLOAD TIMESTAMP LT PUSH2 0xCF JUMPI PUSH1 0x40 MLOAD PUSH3 0x461BCD PUSH1 0xE5 SHL DUP2 MSTORE PUSH1 0x20 PUSH1 0x4 DUP3 ADD MSTORE PUSH1 0x1E PUSH1 0x24 DUP3 ADD MSTORE PUSH32 0x4465706F7369747320617265206E6F206C6F6E67657220616C6C6F7765640000 PUSH1 0x44 DUP3 ADD MSTORE PUSH1 0x64 ADD JUMPDEST PUSH1 0x40 MLOAD DUP1 SWAP2 SUB SWAP1 REVERT JUMPDEST CHAINID PUSH2 0x2105 EQ ISZERO DUP1 ISZERO PUSH2 0xE4 JUMPI POP CHAINID PUSH3 0x14A34 EQ ISZERO JUMPDEST ISZERO PUSH2 0x14F JUMPI CALLER ORIGIN EQ PUSH2 0x14F JUMPI PUSH1 0x40 MLOAD PUSH3 0x461BCD PUSH1 0xE5 SHL DUP2 MSTORE PUSH1 0x20 PUSH1 0x4 DUP3 ADD MSTORE PUSH1 0x2E PUSH1 0x24 DUP3 ADD MSTORE PUSH32 0x436F6E7472616374732063616E6E6F742073656E6420455448206F6E206E6F6E PUSH1 0x44 DUP3 ADD MSTORE PUSH14 0x2D42617365206E6574776F726B73 PUSH1 0x90 SHL PUSH1 0x64 DUP3 ADD MSTORE PUSH1 0x84 ADD PUSH2 0xC6 JUMP JUMPDEST PUSH1 0x40 DUP1 MLOAD CALLER DUP2 MSTORE CALLVALUE PUSH1 0x20 DUP3 ADD MSTORE PUSH32 0x88A5966D370B9919B20F3E2C13FF65706F196A4E32CC2C12BF57088F88525874 SWAP2 ADD PUSH1 0x40 MLOAD DUP1 SWAP2 SUB SWAP1 LOG1 STOP JUMPDEST PUSH1 0x0 DUP1 REVERT JUMPDEST CALLVALUE DUP1 ISZERO PUSH2 0x19A JUMPI PUSH1 0x0 DUP1 REVERT JUMPDEST POP PUSH2 0x1AE PUSH2 0x1A9 CALLDATASIZE PUSH1 0x4 PUSH2 0x644 JUMP JUMPDEST PUSH2 0x27C JUMP JUMPDEST STOP JUMPDEST CALLVALUE DUP1 ISZERO PUSH2 0x1BC JUMPI PUSH1 0x0 DUP1 REVERT JUMPDEST POP PUSH2 0x1C6 PUSH1 0x0 SLOAD DUP2 JUMP JUMPDEST PUSH1 0x40 MLOAD SWAP1 DUP2 MSTORE PUSH1 0x20 ADD JUMPDEST PUSH1 0x40 MLOAD DUP1 SWAP2 SUB SWAP1 RETURN JUMPDEST CALLVALUE DUP1 ISZERO PUSH2 0x1E5 JUMPI PUSH1 0x0 DUP1 REVERT JUMPDEST POP PUSH2 0x1AE PUSH2 0x31A JUMP JUMPDEST CALLVALUE DUP1 ISZERO PUSH2 0x1FA JUMPI PUSH1 0x0 DUP1 REVERT JUMPDEST POP PUSH2 0x1C6 PUSH1 0x1 SLOAD DUP2 JUMP JUMPDEST CALLVALUE DUP1 ISZERO PUSH2 0x210 JUMPI PUSH1 0x0 DUP1 REVERT JUMPDEST POP PUSH1 0x2 SLOAD PUSH2 0x224 SWAP1 PUSH1 0x1 PUSH1 0x1 PUSH1 0xA0 SHL SUB AND DUP2 JUMP JUMPDEST PUSH1 0x40 MLOAD PUSH1 0x1 PUSH1 0x1 PUSH1 0xA0 SHL SUB SWAP1 SWAP2 AND DUP2 MSTORE PUSH1 0x20 ADD PUSH2 0x1D0 JUMP JUMPDEST CALLVALUE DUP1 ISZERO PUSH2 0x248 JUMPI PUSH1 0x0 DUP1 REVERT JUMPDEST POP PUSH2 0x1AE PUSH2 0x257 CALLDATASIZE PUSH1 0x4 PUSH2 0x674 JUMP JUMPDEST PUSH2 0x403 JUMP JUMPDEST CALLVALUE DUP1 ISZERO PUSH2 0x268 JUMPI PUSH1 0x0 DUP1 REVERT JUMPDEST POP PUSH2 0x1AE PUSH2 0x277 CALLDATASIZE PUSH1 0x4 PUSH2 0x674 JUMP JUMPDEST PUSH2 0x50A JUMP JUMPDEST PUSH1 0x2 SLOAD PUSH1 0x1 PUSH1 0x1 PUSH1 0xA0 SHL SUB AND CALLER EQ PUSH2 0x2A6 JUMPI PUSH1 0x40 MLOAD PUSH3 0x461BCD PUSH1 0xE5 SHL DUP2 MSTORE PUSH1 0x4 ADD PUSH2 0xC6 SWAP1 PUSH2 0x68D JUMP JUMPDEST PUSH1 0x1 PUSH1 0x1 PUSH1 0xA0 SHL SUB DUP2 AND PUSH1 0x0 SUB PUSH2 0x2F8 JUMPI PUSH1 0x40 MLOAD PUSH3 0x461BCD PUSH1 0xE5 SHL DUP2 MSTORE PUSH1 0x20 PUSH1 0x4 DUP3 ADD MSTORE PUSH1 0x16 PUSH1 0x24 DUP3 ADD MSTORE PUSH22 0x4F776E6572206D757374206E6F74206265207A65726F PUSH1 0x50 SHL PUSH1 0x44 DUP3 ADD MSTORE PUSH1 0x64 ADD PUSH2 0xC6 JUMP JUMPDEST PUSH1 0x2 DUP1 SLOAD PUSH1 0x1 PUSH1 0x1 PUSH1 0xA0 SHL SUB NOT AND PUSH1 0x1 PUSH1 0x1 PUSH1 0xA0 SHL SUB SWAP3 SWAP1 SWAP3 AND SWAP2 SWAP1 SWAP2 OR SWAP1 SSTORE JUMP JUMPDEST PUSH1 0x0 SLOAD TIMESTAMP LT ISZERO PUSH2 0x365 JUMPI PUSH1 0x40 MLOAD PUSH3 0x461BCD PUSH1 0xE5 SHL DUP2 MSTORE PUSH1 0x20 PUSH1 0x4 DUP3 ADD MSTORE PUSH1 0x16 PUSH1 0x24 DUP3 ADD MSTORE PUSH22 0x165BDD4818D85B89DD081DDA5D1A191C985DC81E595D PUSH1 0x52 SHL PUSH1 0x44 DUP3 ADD MSTORE PUSH1 0x64 ADD PUSH2 0xC6 JUMP JUMPDEST PUSH1 0x2 SLOAD PUSH1 0x1 PUSH1 0x1 PUSH1 0xA0 SHL SUB AND CALLER EQ PUSH2 0x38F JUMPI PUSH1 0x40 MLOAD PUSH3 0x461BCD PUSH1 0xE5 SHL DUP2 MSTORE PUSH1 0x4 ADD PUSH2 0xC6 SWAP1 PUSH2 0x68D JUMP JUMPDEST PUSH1 0x40 DUP1 MLOAD SELFBALANCE DUP2 MSTORE TIMESTAMP PUSH1 0x20 DUP3 ADD MSTORE PUSH32 0xBF2ED60BD5B5965D685680C01195C9514E4382E28E3A5A2D2D5244BF59411B93 SWAP2 ADD PUSH1 0x40 MLOAD DUP1 SWAP2 SUB SWAP1 LOG1 PUSH1 0x2 SLOAD PUSH1 0x40 MLOAD PUSH1 0x1 PUSH1 0x1 PUSH1 0xA0 SHL SUB SWAP1 SWAP2 AND SWAP1 SELFBALANCE DUP1 ISZERO PUSH2 0x8FC MUL SWAP2 PUSH1 0x0 DUP2 DUP2 DUP2 DUP6 DUP9 DUP9 CALL SWAP4 POP POP POP POP ISZERO DUP1 ISZERO PUSH2 0x400 JUMPI RETURNDATASIZE PUSH1 0x0 DUP1 RETURNDATACOPY RETURNDATASIZE PUSH1 0x0 REVERT JUMPDEST POP JUMP JUMPDEST PUSH1 0x2 SLOAD PUSH1 0x1 PUSH1 0x1 PUSH1 0xA0 SHL SUB AND CALLER EQ PUSH2 0x42D JUMPI PUSH1 0x40 MLOAD PUSH3 0x461BCD PUSH1 0xE5 SHL DUP2 MSTORE PUSH1 0x4 ADD PUSH2 0xC6 SWAP1 PUSH2 0x68D JUMP JUMPDEST PUSH1 0x0 SLOAD DUP2 GT ISZERO PUSH2 0x4A5 JUMPI PUSH1 0x40 MLOAD PUSH3 0x461BCD PUSH1 0xE5 SHL DUP2 MSTORE PUSH1 0x20 PUSH1 0x4 DUP3 ADD MSTORE PUSH1 0x37 PUSH1 0x24 DUP3 ADD MSTORE PUSH32 0x4465706F73697420646561646C696E65206D757374206265206265666F726520 PUSH1 0x44 DUP3 ADD MSTORE PUSH32 0x6F7220657175616C20746F20756E6C6F636B2074696D65000000000000000000 PUSH1 0x64 DUP3 ADD MSTORE PUSH1 0x84 ADD PUSH2 0xC6 JUMP JUMPDEST DUP1 TIMESTAMP LT PUSH2 0x505 JUMPI PUSH1 0x40 MLOAD PUSH3 0x461BCD PUSH1 0xE5 SHL DUP2 MSTORE PUSH1 0x20 PUSH1 0x4 DUP3 ADD MSTORE PUSH1 0x28 PUSH1 0x24 DUP3 ADD MSTORE PUSH32 0x4465706F73697420646561646C696E652073686F756C6420626520696E207468 PUSH1 0x44 DUP3 ADD MSTORE PUSH8 0x6520667574757265 PUSH1 0xC0 SHL PUSH1 0x64 DUP3 ADD MSTORE PUSH1 0x84 ADD PUSH2 0xC6 JUMP JUMPDEST PUSH1 0x1 SSTORE JUMP JUMPDEST PUSH1 0x2 SLOAD PUSH1 0x1 PUSH1 0x1 PUSH1 0xA0 SHL SUB AND CALLER EQ PUSH2 0x534 JUMPI PUSH1 0x40 MLOAD PUSH3 0x461BCD PUSH1 0xE5 SHL DUP2 MSTORE PUSH1 0x4 ADD PUSH2 0xC6 SWAP1 PUSH2 0x68D JUMP JUMPDEST DUP1 PUSH1 0x0 SLOAD LT PUSH2 0x585 JUMPI PUSH1 0x40 MLOAD PUSH3 0x461BCD PUSH1 0xE5 SHL DUP2 MSTORE PUSH1 0x20 PUSH1 0x4 DUP3 ADD MSTORE PUSH1 0x19 PUSH1 0x24 DUP3 ADD MSTORE PUSH32 0x43616E6E6F74206465637265617365206C6F636B2074696D6500000000000000 PUSH1 0x44 DUP3 ADD MSTORE PUSH1 0x64 ADD PUSH2 0xC6 JUMP JUMPDEST DUP1 TIMESTAMP LT PUSH2 0x5E0 JUMPI PUSH1 0x40 MLOAD PUSH3 0x461BCD PUSH1 0xE5 SHL DUP2 MSTORE PUSH1 0x20 PUSH1 0x4 DUP3 ADD MSTORE PUSH1 0x23 PUSH1 0x24 DUP3 ADD MSTORE PUSH32 0x556E6C6F636B2074696D652073686F756C6420626520696E2074686520667574 PUSH1 0x44 DUP3 ADD MSTORE PUSH3 0x757265 PUSH1 0xE8 SHL PUSH1 0x64 DUP3 ADD MSTORE PUSH1 0x84 ADD PUSH2 0xC6 JUMP JUMPDEST PUSH4 0x68635D40 DUP2 LT PUSH2 0x63F JUMPI PUSH1 0x40 MLOAD PUSH3 0x461BCD PUSH1 0xE5 SHL DUP2 MSTORE PUSH1 0x20 PUSH1 0x4 DUP3 ADD MSTORE PUSH1 0x23 PUSH1 0x24 DUP3 ADD MSTORE PUSH32 0x556E6C6F636B2074696D65206D757374206265206265666F7265204A756C7920 PUSH1 0x44 DUP3 ADD MSTORE PUSH3 0xC5CDD PUSH1 0xEA SHL PUSH1 0x64 DUP3 ADD MSTORE PUSH1 0x84 ADD PUSH2 0xC6 JUMP JUMPDEST PUSH1 0x0 SSTORE JUMP JUMPDEST PUSH1 0x0 PUSH1 0x20 DUP3 DUP5 SUB SLT ISZERO PUSH2 0x656 JUMPI PUSH1 0x0 DUP1 REVERT JUMPDEST DUP2 CALLDATALOAD PUSH1 0x1 PUSH1 0x1 PUSH1 0xA0 SHL SUB DUP2 AND DUP2 EQ PUSH2 0x66D JUMPI PUSH1 0x0 DUP1 REVERT JUMPDEST SWAP4 SWAP3 POP POP POP JUMP JUMPDEST PUSH1 0x0 PUSH1 0x20 DUP3 DUP5 SUB SLT ISZERO PUSH2 0x686 JUMPI PUSH1 0x0 DUP1 REVERT JUMPDEST POP CALLDATALOAD SWAP2 SWAP1 POP JUMP JUMPDEST PUSH1 0x20 DUP1 DUP3 MSTORE PUSH1 0x14 SWAP1 DUP3 ADD MSTORE PUSH20 0x2CB7BA9030B932B713BA103A34329037BBB732B9 PUSH1 0x61 SHL PUSH1 0x40 DUP3 ADD MSTORE PUSH1 0x60 ADD SWAP1 JUMP INVALID LOG2 PUSH5 0x6970667358 0x22 SLT KECCAK256 CALLDATACOPY 0x25 LOG4 0xBF 0xE3 SSTORE EXTCODESIZE GT 0xA7 SWAP6 0xEB PUSH30 0x112115D7F64C504E420C4F7DE9998FF91466538664736F6C634300081C00 CALLER "
        },
        "methodIdentifiers": {
          "depositDeadline()": "61603d89",
          "owner()": "8da5cb5b",
          "setDepositDeadline(uint256)": "d8a86081",
          "setOwner(address)": "13af4035",
          "setUnlockTime(uint256)": "dace4557",
          "unlockTime()": "251c1aa3",
          "withdraw()": "3ccfd60b"
        }
      }
    }
  }
}